:030000000200F605
:0C00F600787FE4F6D8FD75817702013DAB
:1002A400010B00010C00010D00010E000110000102
:0B02B4000F00010800010900010A0012
:05002600AB07ED703195
:10002B008B0BF57774807E00A877088006CEA2E74D
:10003B0013CE13D8F8FFEBF582EF558224FFB39262
:10004B0081D280C2800577E577B408D8D282C2828C
:06005B0022ED640170318A
:100061008B0CF57774807E00A877088006CEA2E716
:1000710013CE13D8F8FFEBF582EF558224FFB3922C
:1000810084D283C2830577E577B408D8D285C28547
:0600910022ED6402702F55
:100097008B0DF57774807E00A877088006CEA2E7DF
:1000A70013CE13D8F8FFEBFDEF5D24FFB39291D287
:0E00B70090C2900577E577B408DAD292C29233
:0100C5002218
:1000C6008B0EE4F57774807E00A877088006CEA2B2
:1000D600E713CE13D8F8FFEBFDEF5D24FFB3929440
:0F00E600D293C2930577E577B408DAD295C29525
:0100F50022E8
:1001E300ED701004A807088002C333D8FC420BAF9C
:1001F3000B8037BD01117401A807088002C333D8EF
:10020300FC420CAF0C8023BD02117401A8070880C7
:1002130002C333D8FC420DAF0D800F7401A8070849
:0E0223008002C333D8FC420EAF0E120026221A
:0F02C000758920758DFD759850D28E75A8902286
:10000300EFC394004019748094815013AD0812001B
:10001300260508E508B40407E4F508F510F50F22F2
:0302CF008F772204
:10018200C2998F9974D02FFF3099FDC299E51070F2
:100192000AEF7007C2B47510018043E510B4011371
:1001A200E50F700FEFD394004009EF940350048FD2
:1001B2000F802BE5106022E50F601E6401600BE5E5
:1001C2000F64026005E50FB40305120003800FE51A
:1001D2000FB4040A1202CF8005E4F510F50FC2989D
:0101E20022FA
:0300230002026C6A
:10026C00C0E0C082C0D075D000C000C003C005C0C3
:10027C0006C00730980CB2B5859911AF11120182E6
:10028C008005309902C299D007D006D005D003D092
:08029C0000D0D0D082D0E03286
:10023100E4FDFF1200267D01E4FF1200267D02E4A9
:10024100FF1200267D03E4FF120026E4FDFF1200E9
:10025100267D01E4FF1200267D02E4FF1200267DC7
:0B02610003E4FF1200261202C080FE22
:10010200020231E493A3F8E493A34003F68001F2E0
:1001120008DFF48029E493A3F85407240CC8C333FE
:10012200C4540F4420C8834004F456800146F6DFCD
:10013200E4800B01020408102040809002A4E47EB7
:10014200019360BCA3FF543F30E509541FFEE493C2
:10015200A360010ECF54C025E060A840B8E493A389
:10016200FAE493A3F8E493A3C8C582C8CAC583CAB4
:10017200F0A3C8C582C8CAC583CADFE9DEE780BE6C
:0102BF00003E
:00000001FF
