:030000000200FA01
:0C00FA00787FE4F6D8FD75811D020141FD
:10034D00010B00010C00010D00010E000110000158
:10035D000F00010900010800010A000A12FFFFFF4A
:07036D00FF500000000050EA
:040026007D01E4FF75
:05002A00AB07ED703191
:10002F008B0BF51D74807E00A81D088006CEA2E7FD
:10003F0013CE13D8F8FFEBF582EF558224FFB3925E
:10004F0081D280C280051DE51DB408D8D282C2823C
:06005F0022ED6401703186
:100065008B0CF51D74807E00A81D088006CEA2E7C6
:1000750013CE13D8F8FFEBF582EF558224FFB39228
:1000850084D283C283051DE51DB408D8D285C285F7
:0600950022ED6402702F51
:10009B008B0DF51D74807E00A81D088006CEA2E78F
:1000AB0013CE13D8F8FFEBFDEF5D24FFB39291D283
:0E00BB0090C290051DE51DB408DAD292C292E3
:0100C9002214
:1000CA008B0EE4F51D74807E00A81D088006CEA262
:1000DA00E713CE13D8F8FFEBFDEF5D24FFB392943C
:0F00EA00D293C293051DE51DB408DAD295C295D5
:0100F90022E4
:10026000ED701004A807088002C333D8FC420BAF1E
:100270000B8037BD01117401A807088002C333D871
:10028000FC420CAF0C8023BD02117401A80708804A
:1002900002C333D8FC420DAF0D800F7401A80708CC
:0E02A0008002C333D8FC420EAF0E12002A2299
:0F037500758920758DFD759850D28E75A89022D0
:10000300EFC394004019748094815013AD0912001A
:100013002A0509E509B40407E4F509F510F50F22EB
:1002EA00AD07E50870068D0A75080122E50A75F062
:1002FA0005A4FFE509B50710E4B5F00CFD7FFF1270
:10030A00002AE4F510F50F22B29674122509F8A610
:04031A0005050922AA
:10018600C29974D02FFFF5993099FDC299E5107088
:1001960010EF700DC297F508F509D2B475100180FD
:1001A6004BE510B40113E50F700FEFD3940040092F
:1001B600EF940550048F0F8033E5106026E50F603D
:1001C600226401600BE50F64026005E50FB40307C6
:1001D600C2971200038015E50FB40410B2971202FD
:0F01E600EA8009C297C2B4E4F510F50FC298225F
:02031E00AD0729
:10032000E4FCED75F00AA4FFECC39FE5F06480F8EF
:100330007480985017758921C28D758CFC758A66FA
:0C034000D28C308DFDC28DC28C0C80D69A
:01034C00228E
:030023000202AE28
:1002AE00C0E0C0F0C082C0D075D000C000C003C096
:1002BE0005C006C00730980CB2B5859911AF111262
:1002CE0001868005309902C299D007D006D005D09C
:0C02DE0003D000D0D0D082D0F0D0E032AD
:1001F500E4FDFF12002A1200267D02E4FF12002A08
:100205007D03E4FF12002AE4FDFF12002A120026F6
:100215007D02E4FF12002A7D03E4FF12002A120387
:1002250075E4FDFF12002A1200267D02E4FF12008C
:100235002A7D03E4FF12002A7FC812031EE4FD7F16
:10024500F012002A7D017FF012002A7D027FF01254
:0B025500002A7D037FF012002A80C603
:100106000201F5E493A3F8E493A34003F68001F219
:1001160008DFF48029E493A3F85407240CC8C333FA
:10012600C4540F4420C8834004F456800146F6DFC9
:10013600E4800B010204081020408090034DE47E09
:10014600019360BCA3FF543F30E509541FFEE493BE
:10015600A360010ECF54C025E060A840B8E493A385
:10016600FAE493A3F8E493A3C8C582C8CAC583CAB0
:10017600F0A3C8C582C8CAC583CADFE9DEE780BE68
:010374000088
:00000001FF
