:030000000201906A
:0C019000787FE4F6D8FD7581110201D7DC
:10000300010800010900010A00010B00010D0101B3
:050013000C01010E00CC
:05002600AB07ED703195
:10002B008B08F51174807E00A811088006CEA2E71C
:10003B0013CE13D8F8FFEBF582EF558224FFB39262
:10004B0081D280C2800511E511B408D8D282C28258
:06005B0022ED640170318A
:100061008B09F51174807E00A811088006CEA2E7E5
:1000710013CE13D8F8FFEBF582EF558224FFB3922C
:1000810084D283C2830511E511B408D8D285C28513
:0600910022ED6402702F55
:100097008B0AF51174807E00A811088006CEA2E7AE
:1000A70013CE13D8F8FFEBFDEF5D24FFB39291D287
:0E00B70090C2900511E511B408DAD292C292FF
:0100C5002218
:1000C6008B0BE4F51174807E00A811088006CEA281
:1000D600E713CE13D8F8FFEBFDEF5D24FFB3929440
:0F00E600D293C2930511E511B408DAD295C295F1
:0100F50022E8
:04021C007D017F01E0
:10022000ED701004A807088002C333D8FC4208AF61
:10023000088037BD01117401A807088002C333D8B4
:10024000FC4209AF098023BD02117401A807088090
:1002500002C333D8FC420AAF0A800F7401A8070812
:0E0260008002C333D8FC420BAF0B12002622E3
:0F02A900758920758DFD759850D28E75A890229D
:0F02B800E50D600AE50C6006FDAF0D1202202275
:030023000200F6E2
:1000F600C0E0C082C0D075D000C000C003C005C03B
:1001060006C00730986E85990FC298E50F7020E5F6
:100116000D7005750D018061750D01E50FC3940421
:100126005005850F0C8052750D00750C00804AE550
:100136000D700512021C8041E50C700CE50FC3948E
:10014600045005850F0C800EE50C700AE50FC3946C
:1001560004400312021CE50C601FE50ED394045004
:100166000BAD0CAF0F120220050E800D12021C758E
:100176000E008005309902C299D007D006D005D06E
:0A01860003D000D0D0D082D0E032C8
:10026E00E4FDFF1200267D01E4FF1200267D02E46C
:10027E00FF1200267D03E4FF120026E4FDFF1200AC
:10028E00267D01E4FF1200267D02E4FF1200267D8A
:0B029E0003E4FF1200261202A980FEFC
:10019C0002026EE493A3F8E493A34003F68001F209
:1001AC0008DFF48029E493A3F85407240CC8C33364
:1001BC00C4540F4420C8834004F456800146F6DF33
:1001CC00E4800B0102040810204080900003E47EC0
:1001DC00019360BCA3FF543F30E509541FFEE49328
:1001EC00A360010ECF54C025E060A840B8E493A3EF
:1001FC00FAE493A3F8E493A3C8C582C8CAC583CA1A
:10020C00F0A3C8C582C8CAC583CADFE9DEE780BED1
:0100180000E7
:00000001FF
