:030000000200F605
:0C00F600787FE4F6D8FD75811102013D11
:10029500010900010A00010B00010C00010E00011B
:0502A5000D000108003E
:05002600AB07ED703195
:10002B008B09F51174807E00A811088006CEA2E71B
:10003B0013CE13D8F8FFEBF582EF558224FFB39262
:10004B0081D280C2800511E511B408D8D282C28258
:06005B0022ED640170318A
:100061008B0AF51174807E00A811088006CEA2E7E4
:1000710013CE13D8F8FFEBF582EF558224FFB3922C
:1000810084D283C2830511E511B408D8D285C28513
:0600910022ED6402702F55
:100097008B0BF51174807E00A811088006CEA2E7AD
:1000A70013CE13D8F8FFEBFDEF5D24FFB39291D287
:0E00B70090C2900511E511B408DAD292C292FF
:0100C5002218
:1000C6008B0CE4F51174807E00A811088006CEA280
:1000D600E713CE13D8F8FFEBFDEF5D24FFB3929440
:0F00E600D293C2930511E511B408DAD295C295F1
:0100F50022E8
:1001D400ED701004A807088002C333D8FC4209AFAD
:1001E400098037BD01117401A807088002C333D800
:1001F400FC420AAF0A8023BD02117401A8070880DB
:1002040002C333D8FC420BAF0B800F7401A807085C
:0E0214008002C333D8FC420CAF0C120026222D
:0F02AB00758920758DFD759850D28E75A890229B
:10000300EFC394004019748094815013AD0812001B
:10001300260508E508B40407E4F508F50EF50D22F6
:10018200C2998F9974D02FFF3099FDC299E50E70F4
:100192000AEF7007C2B4750E018034E50EB4011384
:1001A200E50D700FEFD394004009EF940350048FD4
:1001B2000D801CE50E6013E50D600FB40102800591
:1001C200E50DB4020A1200038005E4F50EF50DC236
:0201D200982271
:0300230002025D79
:10025D00C0E0C082C0D075D000C000C003C005C0D2
:10026D0006C00730980CB2B585990FAF0F120182F9
:10027D008005309902C299D007D006D005D003D0A1
:08028D0000D0D0D082D0E03295
:10022200E4FDFF1200267D01E4FF1200267D02E4B8
:10023200FF1200267D03E4FF120026E4FDFF1200F8
:10024200267D01E4FF1200267D02E4FF1200267DD6
:0B02520003E4FF1200261202AB80FE46
:10010200020222E493A3F8E493A34003F68001F2EF
:1001120008DFF48029E493A3F85407240CC8C333FE
:10012200C4540F4420C8834004F456800146F6DFCD
:10013200E4800B0102040810204080900295E47EC6
:10014200019360BCA3FF543F30E509541FFEE493C2
:10015200A360010ECF54C025E060A840B8E493A389
:10016200FAE493A3F8E493A3C8C582C8CAC583CAB4
:10017200F0A3C8C582C8CAC583CADFE9DEE780BE6C
:0102AA000053
:00000001FF
