:030000000200D328
:0C00D300787FE4F6D8FD75810D02011A5B
:0C01EB00010800010900010A00010B00DE
:05000300AB07ED7031B8
:100008008B08F50D74807E00A80D088006CEA2E747
:1000180013CE13D8F8FFEBF582EF558224FFB39285
:1000280081D280C280050DE50DB408D8D282C28283
:0600380022ED64017031AD
:10003E008B09F50D74807E00A80D088006CEA2E710
:10004E0013CE13D8F8FFEBF582EF558224FFB3924F
:10005E0084D283C283050DE50DB408D8D285C2853E
:06006E0022ED6402702F78
:100074008B0AF50D74807E00A80D088006CEA2E7D9
:1000840013CE13D8F8FFEBFDEF5D24FFB39291D2AA
:0E00940090C290050DE50DB408DAD292C2922A
:0100A200223B
:1000A3008B0BE4F50D74807E00A80D088006CEA2AC
:1000B300E713CE13D8F8FFEBFDEF5D24FFB3929463
:0F00C300D293C293050DE50DB408DAD295C2951C
:0100D200220B
:10015F00ED701004A807088002C333D8FC4208AF23
:10016F00088037BD01117401A807088002C333D876
:10017F00FC4209AF098023BD02117401A807088052
:10018F0002C333D8FC420AAF0A800F7401A80708D4
:0E019F008002C333D8FC420BAF0B12000322C8
:1001AD00E4FDFF1200037D01E4FF1200037D02E474
:1001BD00FF1200037D03E4FF120003E4FD7FFF1235
:1001CD0000037D017FFF1200037D027FFF120003FC
:0E01DD007D037FFF120003D2B0E4F50C80FE1C
:1000DF000201ADE493A3F8E493A34003F68001F289
:1000EF0008DFF48029E493A3F85407240CC8C33322
:1000FF00C4540F4420C8834004F456800146F6DFF1
:10010F00E4800B01020408102040809001EBE47E94
:10011F00019360BCA3FF543F30E509541FFEE493E5
:10012F00A360010ECF54C025E060A840B8E493A3AC
:10013F00FAE493A3F8E493A3C8C582C8CAC583CAD7
:10014F00F0A3C8C582C8CAC583CADFE9DEE780BE8F
:0101F7000007
:00000001FF
