:030000000201AC4E
:0C01AC00787FE4F6D8FD7581780201F33D
:1003A000010B00010C00010D00010E000110000105
:0B03B0000F00010900010800010A0015
:050026002576F8E6FF5D
:05002B00AB07ED703190
:100030008B0BF57874807E00A878088006CEA2E746
:1000400013CE13D8F8FFEBF582EF558224FFB3925D
:1000500081D280C2800578E578B408D8D282C28285
:0600600022ED6401703185
:100066008B0CF57874807E00A878088006CEA2E70F
:1000760013CE13D8F8FFEBF582EF558224FFB39227
:1000860084D283C2830578E578B408D8D285C28540
:0600960022ED6402702F50
:10009C008B0DF57874807E00A878088006CEA2E7D8
:1000AC0013CE13D8F8FFEBFDEF5D24FFB39291D282
:0E00BC0090C2900578E578B408DAD292C2922C
:0100CA002213
:1000CB008B0EE4F57874807E00A878088006CEA2AB
:1000DB00E713CE13D8F8FFEBFDEF5D24FFB392943B
:0F00EB00D293C2930578E578B408DAD295C2951E
:0100FA0022E3
:1002A700ED701004A807088002C333D8FC420BAFD7
:1002B7000B8037BD01117401A807088002C333D82A
:1002C700FC420CAF0C8023BD02117401A807088003
:1002D70002C333D8FC420DAF0D800F7401A8070885
:0E02E7008002C333D8FC420EAF0E12002B2251
:0F03BC00758921758DFD759850D28E75A8902288
:10000300EFC394004019748094815013AD0912001A
:100013002B0509E509B40407E4F509F510F50F22EA
:1002F500AC07E508700CFD7FFF12002B8C0A750812
:100305000122E50A75F005A4FFE509B50709E4B57D
:10031500F005F510F50F227D017FAA12002BB2968C
:1003250074122509F8A6040509E50975F00584AFD9
:0C033500F0BF04077D017FFF12002B22A7
:10023800C29974D02FFFF5993099FDC299E51070D5
:1002480010EF700DC297F508F509D2B4751001804A
:100258004BE510B40113E50F700FEFD3940040097C
:10026800EF940550048F0F8033E5106026E50F608A
:10027800226401600BE50F64026005E50FB4030713
:10028800C2971200038015E50FB40410B29712024A
:0F029800F58009C297C2B4E4F510F50FC29822A1
:0300230002034194
:10034100C0E0C0F0C082C0D075D000C000C003C002
:1003510004C005C006C00730980CB2B5859911AF2D
:10036100111202388005309902C299D007D006D007
:1003710005D004D003D000D0D0D082D0F0D0E0326C
:10038100758921C28DE4FEEEC39F5012758CDCE4A9
:0E039100F58AD28C308DFDC28DC28C0E80E9B3
:01039F00223B
:1000FB00E4FDFF12002B7D01E4FF12002B7D02E4D7
:10010B00FF12002B7D03E4FF12002BE4FDFF120016
:10011B002B7D01E4FF12002B7D02E4FF12002B7DEF
:09012B0003E4FF12002B1203BCD7
:10013400E50A75F005A4B509F7E4B5F0F3E508B4EC
:1001440001EEE4F50FF510F576E50A75F005A4FF68
:10015400C3E5769FE5F06480F874809850D2E57624
:1001640075F00584ADF0BD040C74122576F8E6FF35
:10017400120381802FED702C74122576F8E6FFE4CB
:10018400FD12002B74137D0112002674147D0212DB
:10019400002674152576F8E6FF7D0312002B740300
:0801A4002576F576057680A1B1
:1001B8000200FBE493A3F8E493A34003F68001F262
:1001C80008DFF48029E493A3F85407240CC8C33348
:1001D800C4540F4420C8834004F456800146F6DF17
:1001E800E4800B01020408102040809003A0E47E04
:1001F800019360BCA3FF543F30E509541FFEE4930C
:10020800A360010ECF54C025E060A840B8E493A3D2
:10021800FAE493A3F8E493A3C8C582C8CAC583CAFD
:10022800F0A3C8C582C8CAC583CADFE9DEE780BEB5
:0103BB000041
:00000001FF
